:020000040800F2
:10000000180900203903000841400008213F00087A
:100010003D40000845210008994400080000000008
:10002000000000000000000000000000494000083F
:100030006D21000800000000454000084D40000808
:100040005303000853030008530300085303000838
:100050005303000853030008530300085303000828
:100060005303000853030008530300085303000818
:100070005303000853030008530300085303000808
:1000800053030008530300085303000853030008F8
:1000900049210008530300085303000853030008D4
:1000A00053030008530300085303000853030008D8
:1000B00053030008530300085303000853030008C8
:1000C00053030008530300085303000853030008B8
:1000D00053030008530300085303000853030008A8
:1000E0005303000853030008530300085303000898
:1000F0005303000853030008530300085303000888
:100100005303000853030008530300085303000877
:100110005303000853030008530300085303000867
:100120005303000855210008530300085303000837
:100130005303000853030008530300085303000847
:100140005303000853030008530300085303000837
:100150005303000861210008530300088D44000880
:100160005303000853030008530300085303000817
:100170005303000853030008530300080000000065
:1001800053030008530300085303000853030008F7
:1001900053030008530300085303000853030008E7
:1001A00000000000000000005303000800F002F807
:1001B00000F0B2F814A696E8000CB244B344DA4555
:1001C00001D100F0A9F8BAE80F000FA696E83000B8
:1001D000A5EB040504EB0607AAEB0704A7F101074A
:1001E0004FEA15154FEA3414A4F10104AC4201D3CF
:1001F00000F092F813F0010F18BFFB1A43F001034F
:1002000000F001F8DBE71847F85100001852000031
:10021000103A24BF78C878C1FAD8520724BF30C832
:1002200030C144BF04680C60704700007047000094
:100230000023002400250026103A28BF78C1FBD8EF
:10024000520728BF30C148BF0B6070476E2900F0CD
:100250003183702900F06784662905F016806529CE
:1002600005F01380672905F01080612905F00F80E3
:1002700003681B0A28BF41F08001692900F0DE8273
:10028000642900F0DB82752900F0D8826F2900F024
:10029000F583782900F03384E92900F08F83E4297D
:1002A00000F08C83F52900F08983EF2900F0F283B8
:1002B000F82900F032840368DB0928BF41F080018F
:1002C000632901F03382732901F03882E32901F0B8
:1002D0004382F32901F04882002070471FB504F0E3
:1002E000C7FF9DE8030000F011FA01F09BFB04003A
:1002F0000020002104F0A6FF401C606000200021C7
:1003000004F08AFFE06000F0DDFC00F009F91FBD99
:1003100010B500F040FD10BD00F07DFD1146FFF767
:10032000DDFF04F02DFB01F00DFB03B4FFF7F0FF40
:1003300003BC00F0C9F9000009488047094800479C
:10034000FEE7FEE7FEE7FEE7FEE7FEE7FEE7FEE785
:10035000FEE7FEE704480549054A064B70470000E2
:1003600051400008AD0100081803002018090020C2
:10037000180500201805002053EA020C00F06980DF
:100380002DE9F04B4FF00006002B1FBFB3FA83F5A9
:1003900003FA05F424FA05F65E4012BF1643B2FADA
:1003A00082F502FA05F4C5F120051EBF22FA05FC0C
:1003B00044EA0C04203556EA044C4FEA144418BFB2
:1003C000641C4FF000084FF00009904271EB030CE1
:1003D00039D3002919BFB1FA81F701FA07F6B0FA4B
:1003E00080F700FA07F6C7F120071EBF20FA07FCC6
:1003F00046EA0C062037B6FBF4FCA7EB0507103FD6
:1004000007F01F0BCBF120062CFA06F60CFA0BFBBB
:1004100044BFB3460026202FA4BF5E464FF0000B1A
:100420005BEA060C08BF4FF0010B19EB0B0948EB18
:100430000608ABFB027C06FB02CC0BFB03CCC01B0B
:1004400071EB0C01C1E70B46024641464846BDE848
:10045000F08B13B5084318BF4FF0FF300146AFF3E0
:100460000080BDE81C40704710B5203AC0F00B80FA
:10047000B1E81850A0E81850B1E81850A0E818509A
:10048000203ABFF4F5AF5FEA027C24BFB1E8185010
:10049000A0E8185044BF18C918C0BDE810405FEA72
:1004A000827C24BF51F8043B40F8043B08BF7047EE
:1004B000D20728BF31F8023B48BF11F8012B28BFF3
:1004C00020F8023B48BF00F8012B70474FF00002B4
:1004D00000B5134694469646203922BFA0E80C503A
:1004E000A0E80C50B1F12001BFF4F7AF090728BF15
:1004F000A0E80C5048BF0CC05DF804EB890028BF91
:1005000040F8042B08BF704748BF20F8022B11F0B9
:10051000804F18BF00F8012B704770477047704735
:1005200008487CB57844009007487844009C05460C
:10053000019004E02046016808448047241DAC4235
:10054000F8D17CBD245000002250000070B5064652
:1005500000F0C0F8056806F10B0020F00704B44273
:100560009CBF002070BD2B466A68BAB11068A042DB
:1005700010D304F1080188423CBF5068586007D38B
:100580005168101941601168091B016058601460BE
:10059000101D70BD13465268002AE7D12146284637
:1005A00000F0A0F80028DED170BD70B50446051F2C
:1005B00000F090F80068002C14BF446870BD002C57
:1005C00018BFAC423CBF20466468F8D301680A18E3
:1005D000AA4218BF456003D12A680546114401604C
:1005E00028684119A1421CBF6C6070BD61686960D8
:1005F00021680844286070BD2DE9F04791460C46FB
:10060000804600F067F80768604234EA000001D1D4
:10061000042C02D20520BDE8F087601E40F00706DA
:1006200009F10B0020F007054D4539D93B467A68A2
:1006300082B31468101D404206EA000C644525D9B7
:10064000A4EB0C00854221D8BCF1000F0BD0104662
:1006500001686244A1EB0C01116041685160C0F86F
:1006600000C058600346116805F10800814205D3B7
:100670005019491B016015605860034652F8040F79
:1006800058600020C8F80020BDE8F0871346526883
:10069000002ACED12946384600F024F80028C5D1DA
:1006A0000620BDE8F0870B460146184600F016B953
:1006B00010B5002000F0A2FBFFF72AFEBDE81040B5
:1006C000012000F001B8000001491820ABBEFEE790
:1006D00026000200004870473C0100207047704728
:1006E0007047704738B504460A4600206946AFF3A4
:1006F0000080002808BF38BD02460099204600F05F
:10070000AFFB012038BD012001F049B9F8B5AFF3C6
:100710000080054600200C460C2000BF0646A819A4
:10072000A0420DD9324669460020AFF30080070091
:1007300008BF01F034F90098A04218BF0546C4195B
:10074000FFF7C8FF05600746F01D20F007004619B7
:10075000284600F00AF8B44208BFF8BDA21B314693
:100760003868BDE8F84000F07BBB002101604160C3
:1007700070470C20704770B5044685690068C10653
:1007800001D5302600E02026C00707D070BDD4E98F
:10079000012130469047206A401C20626D1EF6D52C
:1007A00070BD70B5044685690078C00707D170BD7B
:1007B000D4E9012120209047206A401C20626D1E50
:1007C000F6D570BD09684A0501D540B27047C90524
:1007D000FCD500B2704709684A0501D5C0B2704720
:1007E000C905FCD580B2704770B50C460546012A94
:1007F00005D02878800600D5EA69002302E00123AD
:1008000005E05B1C934202D2E05C0028F9D1A869A4
:10081000E618C01AA861286A184428622846FFF71B
:10082000AAFF04E0D5E9012114F8010B9047B44276
:10083000F8D32846FFF7B5FF70BD00002DE9F04161
:100840000646002410687529314616A510D0FFF71A
:10085000B9FF002802DA404213A507E031688A0791
:1008600001D512A502E0490704D511A5012401E034
:10087000FFF7B1FF00210A2206F1240709E0B0FBCF
:10088000F2FCB0FBF2F302FB1C0030307854184647
:10089000491C0028F3D123462A463046BDE8F041E2
:1008A00000F03DBB000000002D0000002B00000008
:1008B0002000000011680268006A530501D5087025
:1008C0000AE0D30501D5088006E0130603D5C21758
:1008D000C1E9000200E0086001207047074B70B5D5
:1008E0000D467B4400F005FF0446284600F040FF1B
:1008F00010B14FF0FF3070BD204670BD15490000AB
:100900002DE9FF5F15468A460446DFF8AC80F844BF
:100910000027D8E900103E46CDE9001010E03AF873
:1009200016106A4602A800F0E9FF411C07D02178A2
:10093000890603D5E269391891420DD80744761C1F
:100940002078800602D5E069B84205DDAE42E6DBDC
:100950003AF816000028E2D1A069C01BA061204629
:10096000FFF709FFD8E90010CDE90010002017E0DB
:100970003AF818106A4602A800F0C0FFB0F1FF3F35
:1009800081460BD000250DF1080B05E0D4E90121CB
:100990001BF8050090476D1C4D45F7D308F1010089
:1009A000B0428046E4DB206A384420622046FFF7EC
:1009B000F8FEBDE8FF9F0000824900002DE9F041EC
:1009C0008046D21D22F007020025D2E90002F52957
:1009D00015A614D0011E72F1000106DA0023D0EB37
:1009E000030063EB020211A608E0D8F800108B07A1
:1009F00001D50FA602E0490701D50EA60125114633
:100A0000002408F1240704E000F044FA30323A559B
:100A1000641C50EA0102F7D12B463246214640467B
:100A2000BDE8F04100F07BBA000000002D0000009E
:100A30002B0000002000000030B4002100F124044D
:100A400008E002F00705D208303542EA4372DB08BD
:100A50006554491C52EA0305F3D10468002310A22F
:100A6000250708D504F020040C4304D0C4690123F1
:100A70000CA2641EC46130BC00F051BA10B504462B
:100A800021461068FFF7A7FE02462046BDE8104049
:100A90000023D1E7D21D22F00701D1E90023CBE7E3
:100AA0000000000030000000F0B40D460188090588
:100AB00002D5214C7C4402E01F4C7C440E340021C2
:100AC00000F1240608E002F00F071209E75D42EA90
:100AD00003721B097754491C52EA0307F3D10278C9
:100AE0000023120704D5702D06D009B1022311345A
:100AF0002246F0BC00F013BA01231034F8E770B5B9
:100B000004460D4621461068FFF765FE0246294659
:100B10002046BDE870400023C6E7D21D22F007033F
:100B2000D3E90023C0E70368126843F020030360A1
:100B30000823C3610023B7E7E44700002DE9F05F15
:100B4000894604464FF0000ADFF874B1FB44C0F850
:100B500020A02046E1688847002874D0252806D0C8
:100B6000D4E901219047206A401C2062F1E7002669
:100B70005F462046E16888472028054607DB312D7F
:100B800005D2781910F8200C08B10643F1E7B00738
:100B900001D526F00406C4F81CA00027C4F818A04C
:100BA0002A2D09D0284604F021FB38B304EB87082E
:100BB000303DC8F8185019E059F8041B204604EBE2
:100BC00087029161E1688847012F054618D1E069E5
:100BD000002820DA26F020061DE0D8F8180000EBE7
:100BE000800005EB40003038C8F818002046E16866
:100BF0008847054604F0FAFA0028EED1012F0AD002
:100C00002E2D08D12046E16888477F1C0546022F1B
:100C100046F02006C4DBA069002803DA404246F013
:100C20000106A061F00701D026F010066C2D0BD054
:100C3000682D09D04C2D39D06A2D35D0742D35D082
:100C40007A2D33D016E038E0E1682F4620468847F9
:100C5000B842054609D16C2F26D04FF48060E16878
:100C6000064320468847054604E06C2F1AD04FF40F
:100C7000807006430DB3A5F14100192802D8203534
:100C800046F400664A462946204626604E46FFF74F
:100C9000DDFA80B101280BD0F61D26F0070000F127
:100CA000080956E74020E4E78020D8E70020D6E78F
:100CB00006F104094DE7284652E7206ABDE8F09F97
:100CC0007447000010B542485421FFF7FFFB41482C
:100CD0005421FFF7FBFB40485421FFF7F7FB3F4946
:100CE0003B483C4A3F4B08603D490A603A4919601D
:100CF000531C0365481C1065012008653B48344AB5
:100D000039A1784400F05CFD20B9384878440A38AD
:100D100000F03EFE37482F4A35A1784400F050FDE0
:100D200020B9344878440A3800F032FE32482A4A62
:100D30002FA1784400F044FD20B92F4878440A38A8
:100D400000F026FE40232248DC000021224600F06D
:100D500013FD20B125487844543800F019FE1D4891
:100D600022464023002100F007FD20B121487844AD
:100D7000543800F00DFE184822461023002100F0E0
:100D8000FBFC002806D01C487844BDE810405638CB
:100D900000F0FEBD10BD104870B5006D20F00104DC
:100DA0000B4800F085FD0B4800F082FD0A4800F07A
:100DB0007FFD09E0206D20F00105204600F078FD60
:100DC0002046FFF7F2FB2C46002CF3D170BD00004B
:100DD000380000208C000020E000002000000020EF
:100DE000040000200800002072000000CF45000031
:100DF00077000000BB450000A745000010B500F0DB
:100E0000AFFDBDE8104000F0A6BD000000487047EF
:100E10003401002070477546FFF7F8FFAE46050025
:100E20006946534620F00700854618B020B5FFF705
:100E300091FABDE820404FF000064FF000074FF058
:100E400000084FF0000BAC46ACE8C009ACE8C009A4
:100E5000ACE8C009ACE8C00921F007018D46704735
:100E6000034640688C46002818BF88423CBF0346B2
:100E70004068F8D318681844884207D00CF1030082
:100E800020F00700001D411A521A0146081D0A6091
:100E9000FFF78BBB30B5B0F10A0271F100034FEAE6
:100EA000900E4EEA817EB0EB0E0061EB91014FEAAD
:100EB000101E4EEA017E10EB0E0041EB11114FEABD
:100EC000102E4EEA016E10EB0E0041EB11214FEA9D
:100ED000104E4EEA014E10EB0E0041EB114140184E
:100EE00041F100014FEAD00040EA41704FEAD101E0
:100EF0004FEA810444EA907410EB800544EB01044E
:100F00006D1944EB0404521BA3414FF0000348BF8A
:100F10000A3200D530BD401C41F1000130BD2DE941
:100F2000F0470D4699469246044600F124080168B0
:100F3000880604D5E06921F01001216000E001205D
:100F4000A84201DD471B00E00027A1697A1902EBE6
:100F50000900081AA0612078C00602D42046FFF7D5
:100F60000AFC002608E0D4E901211AF8060090479F
:100F7000206A401C761C20624E45F4DB2078C006B7
:100F80000AD52046FFF7F7FB06E0D4E9012130201F
:100F90009047206A401C2062381EA7F10107F4DC4C
:100FA00007E0D4E9012118F805009047206A401CA9
:100FB0002062281EA5F10105F3DC2046FFF7F1FBB6
:100FC0002078000602D50220BDE8F0870120FBE76B
:100FD0002DE9FF4F0C461E464FF0FF378BB0D2E98C
:100FE0000001DDF860800A908A46C1F30A5505B910
:100FF0003D46002108464FF00000BAF1000F00F412
:10100000400005DA00EB80004FF4400101EA500097
:101010004FEA9059B9F1010F00DDB9460A9850EA3C
:101020004A000ED044F61050A5F2FF3545432F1468
:10103000B8F1000F1ED07542291E1EDDC9F1000255
:101040001CE0B8F1010F4FF0000001D0302103E0A7
:10105000F24305E02154401CB042FBDB3046002245
:10106000002121540B99C1F80880C1E900200FB07C
:10107000BDE8F08FBD1B6D1CDEE74A4600DA694211
:1010800006A800F013FD06AB93E8070003AB83E866
:10109000070050460A9903F0B6FC8DE80700A0F55A
:1010A00000501F3800900398002D0ADD42F21F0106
:1010B0004A460844002303A90390684603F020FF32
:1010C00009E0A0F500504A461F38002303A9039009
:1010D000684603F02AFF8DE807000004000C03D0E7
:1010E0004FF0FF30410800E01046B8F1000F03D088
:1010F0000022009215461EE0751E05D4FFF7CAFEB9
:10110000303262556D1EF9D5B3460122084302D034
:1011100000227F1C04E02078302801D100227F1EAD
:10112000002A099784D01DE0112D07DAFFF7B2FEDF
:10113000303262556D1C50EA0102F5D1084302D0ED
:101140000098C8B10EE00021681E05E0235C625CD7
:1011500063542254401E491C8142F7DBAB46A81B56
:10116000401E0990002004F80B000B98099AC0F863
:101170000880C0E9002B7AE711264FF0000857E7F6
:101180002DE9F04F88460446D21D22F0070191B0A8
:10119000D1E90001CDE90A0104F010F802460B98EC
:1011A000C00F01D02D2007E02068810701D52B203A
:1011B00002E0202101EAC000032A099001D0072A99
:1011C00005DB03464146204600F030FC0BE1207869
:1011D000800601D5E06900E00620B8F1650F814680
:1011E00006D0B8F1660F18D0B8F1670F70D131E0B2
:1011F0000020B9F1110F009001DB112301E009F18A
:1012000001030AAA01A90CA8FFF7E2FEDDE90C70B0
:10121000002609F10105834647E001204B46009076
:101220004FF000470AAA01A90CA8FFF7D1FEDDE99B
:101230000DB00C995D46002610B909F101000D189A
:10124000B9EB050003D4C0F1FF3609F10105A5EBA8
:1012500009002BE0B9F1010F01DA4FF0010900207C
:10126000B9F1110F0090484601DD112300E003465B
:101270000AAA01A90CA8FFF7ABFEDDE90C704D46E8
:1012800000268346207800070AD4AB4500DA5D4685
:1012900001A8012D04DD411911F8011C302907D0E6
:1012A0004F4502DA17F1040F04DA012082460FE0FD
:1012B0006D1EEEE7002F02DCED1B3E4403E0781CC0
:1012C000A84200DD7D1CB81B00F1010A4FF0004769
:1012D0002078000703D4AA4501DB4FF0FF3A002134
:1012E000B7F1004F0DF143088DF8431024D00220D0
:1012F0002B23002F01DA7F422D230A21021EA0F1A9
:10130000010000DC5FB197FBF1FC97FBF1F201FB00
:101310001C7C17460CF1300C08F801CDEEE7A8F163
:10132000010003702188090501D5452100E06521F0
:10133000A0F1010800F8011C09980FA9A1EB08070A
:10134000FF1D00B10120411901EBEA70A169384489
:10135000081A401EA0612078C00602D42046FFF77C
:101360000AFA099828B1D4E901219047206A401C63
:1013700020622078C00622D52046FFF7FCF91EE047
:10138000002E04DBB34502DD01A8805D00E03020C3
:10139000D4E901219047206A401C2062761CAAF102
:1013A00001005FEA000A0AD100F03CFBC068016856
:1013B000405CD4E901219047206A401C2062281E2D
:1013C000A5F10105DCDC07E0D4E9012118F8010BE7
:1013D0009047206A401C2062381EA7F10107F3DC09
:1013E0002046FFF7DEF9032011B041E62DE9F04F6A
:1013F00004460D46D21D22F0070089B0D0E90097BF
:101400004846394603F0DAFE0246F80F01D02D2394
:1014100007E02068810701D52B2302E0202101EAA3
:10142000C0038DF820300BB1012000E00020032A1A
:10143000824601D0072A04DB2946204600F0F6FA4E
:101440003FE12078800601D40D2500E0E569C7F36F
:101450000A560D2D49DA00214FEA175B08464FF076
:101460000000002F00F4400007DA00EB80004FF48A
:10147000400100EBD07001EA60008115012901DD17
:101480004FF0FF3100224FEA850CBCF1180F06D354
:101490001346ACF118004FF08052C24003E04FF405
:1014A000801323FA0CF30CF10C0CBCF1200F04D3C5
:1014B000ACF1200C09FA0CF001E007FA0CF000295D
:1014C0004FF0004801DD18B90FE00ED140450CD3B4
:1014D00019EB02095F4121B9404502D19F4329EA36
:1014E0000209BBEB175F00D0761C2088000502D5EF
:1014F0007B48784402E07A487844193808AA3023B7
:1015000002F80A30037C0AF10101002E0AF1020AF6
:1015100053546A4602DC4FF0300101E04FF03101D4
:101520004FF001088DF8001002D0A6F2FF3603E05C
:1015300059EA470100D06B4E002D02DC21780907E3
:1015400004D54FF002082E218DF80110C446002169
:101550000BE0C7F303433F01C35C491C6D1E02F857
:101560000830052908F1010801DA002DF1DC00211D
:101570000CE000EB1973491C1B786D1E082902F85A
:1015800008304FEA091908F1010801DA002DF0DCF2
:1015900021688B0602D516E0A8F10108E04505DDBB
:1015A00002EB080313F8013C302BF5D0B8F1000F23
:1015B00009DD02EB080313F8013C2E2B03D10907C8
:1015C00001D4A8F10108002D05DD3E2102F8081024
:1015D0006D1E08F10108407C002E02F8080008F199
:1015E000010804DA2D20764202F8080002E02B20E0
:1015F00002F808000A214FF47A70864208F10108C7
:101600000BDB96FBF0F3303302F8083096FBF0F377
:1016100008F1010800FB136601E0642E0CDB642076
:1016200096FBF0F3303302F8083096FBF0F308F144
:10163000010800FB136601E00A2E06DB96FBF1F0C1
:10164000303002F8080008F1010896FBF1F001FBC8
:101650001060303002F80800A16908F1010808EBB9
:10166000050202EB0A00081AA0612078C00602D425
:101670002046FFF780F8216A08AE01EB0A002062DD
:1016800004E0D4E9012116F8010B9047BAF1010AF0
:10169000F7D22078C00602D52046FFF76CF86E46D8
:1016A00009E016F8010B3E280FD0D4E9012190473C
:1016B000206A401C2062B8F10108F2D22046FFF7F0
:1016C00070F809B00320BDE8F08F206A284420623A
:1016D00003E0D4E90121302090476D1EEBD3F8E7F9
:1016E000FE3D000002FCFFFF01694A1C0261087810
:1016F000704700B58FB0CDE9013100210591054952
:101700007944CDE9031011466846FFF717FA0FB088
:1017100000BD0000E5FFFFFF10B5436913B1AFF353
:10172000008001E0FFF760F8012010BD127800F1A1
:1017300024010A7000224A700122EDE711684FF07F
:10174000FF32E9E710B5436913B1AFF3008001E060
:10175000FFF7D6F8012010BD128800F12401828421
:101760000022C2840122EDE711684FF0FF32E9E761
:10177000007B00F08000704770B5C468A50713D0E7
:10178000650211D4B2F5807F09D0B2F5007F06D092
:10179000B2F5806F08D1012300F1240106E05D1E3F
:1017A0006FF07F46B54201D3012070BD0161C36176
:1017B000416024F470611143C160002070BD0000DD
:1017C0002DE9F0410C461646070047D0104600F0C0
:1017D0006FF82078611C61280AD0722802D077281F
:1017E0003CD102E00125002405E00225042402E0AA
:1017F000082448F2020511F8010B2B2806D06228B4
:1018000009D011F8010C74280AD00BE045F003054B
:1018100044F00204EFE745F0040544F00104EAE770
:1018200044F010043846214600F0C0F8411C15D0A1
:101830000021316171604FF40071F560F1617061F8
:10184000200704D530460222002100F093FA306DC3
:1018500040F0010030653046BDE8F0810020FBE734
:101860002DE9F0410D460646104C206DC10704D00D
:10187000410804D020F00104F7E722460EE054208E
:10188000FEF764FE07000ED0206D47F0010108430B
:10189000542120653846FEF719FE3A46294630465F
:1018A000BDE8F0418CE70020D6E7000038000020BA
:1018B0002DE9F04704464FF0FF380026C568D4E90B
:1018C0000497A80718D0204600F010FB384600F017
:1018D00077F8002800DA4646280502D54846FEF784
:1018E00064FE4C212046FEF7F1FD206D20F0010042
:1018F00020653046BDE8F0874046FBE72DE9F04122
:1019000016460C46054600F085F8036893F8010179
:10191000012807D0FF2C12D8185D80B101202C704F
:10192000BDE8F081D3F807013246214603F20713E0
:10193000C7182846BC46BDE8F041002360474FF079
:10194000FF30EDE710B50446AFF300802046BDE858
:101950001040FEF7EABC002801D0FEF7B5BE704784
:1019600010B5002102A000F005FB012010BD000011
:10197000534947414252543A2041626E6F726D6141
:101980006C207465726D696E6174696F6E00000021
:1019900010B500F009FBBDE81040FFF7DCBF10B543
:1019A00000F01CFBBDE81040FFF7D5BF0EB5CDE938
:1019B000000100F063FB029069460120ABBE0EBD42
:1019C00008B5694600900220ABBE08BD1FB58DE882
:1019D000070069460520ABBE04B010BD1FB58DE8F9
:1019E0000F0069460620ABBEF6E708B569460090D1
:1019F0000920ABBE08BD1CB5CDE9000169460A202F
:101A0000ABBE1CBD704708B5694600900C20ABBE4C
:101A100008BD000010B500F005F8001D10BD00BFA6
:101A20002538000000487047540100202DE9F0419E
:101A30001F46044603260168072A01F4006004DB00
:101A400008B116A505E016A503E008B115A500E04C
:101A500015A521F010002060A069C01EA0610FB183
:101A6000401EA0612046FEF786FE4FB1D4E9012159
:101A700038469047206A401C2062C01C206206E065
:101A8000206AFAE7D4E9012115F8010B9047761E88
:101A9000F8D22046FEF785FEBDE8F0814E414E00AB
:101AA0006E616E00494E4600696E66002DE9F04792
:101AB000814616468AB0354878440DC88DE80D0039
:101AC00032487844801C03AC0DC884E80D0041F610
:101AD0009B300844372190FBF1F290FBF1F5A5F122
:101AE000800501FB12041B3C02D56442012000E08A
:101AF0000020DFF898A080460027FA44AAF1BE0A29
:101B00000EE0E0070AD03246684607EB47010123A2
:101B10000AEB810103F009FA8DE8070064107F1CCD
:101B2000002CEED1194F7F44AE3F19E0E80715D0E5
:101B300007EB04100DF1180A90E80E008AE80E0079
:101B4000C068F04201D1981908903246012306A9D5
:101B500003A803F0EAF903AB83E807006D10641CE7
:101B6000002DE3D14FF0010332466946B8F1000F72
:101B700003A802D003F0C4F901E003F0D6F9C9E9E3
:101B80000001C9F808200AB0BDE8F087C838000095
:101B90002DE9F05F054617460C46C86820F4201072
:101BA00040F48000C860800602D5084600F0C1F904
:101BB000E06841F282014FF0FF3A0140022903D070
:101BC000204600F053F9B9E000F42041B1F5004F90
:101BD0000FD1C00306D56168E06A884200D8084684
:101BE000606006E02069E06260606069FFF70BFFFB
:101BF000A061A0680022EEB200280DDAE1688B0532
:101C00000AD4C043A06041F490302260E060606874
:101C1000411C61600670AAE0E0689146226040F4D1
:101C20000050E060206978BB6069FFF7DEFE04F1D8
:101C300024054FF00108A8B1A08910F4407F08D016
:101C4000E069FEF783FC206118B1E06840F40060B1
:101C500017E0C4F81C802561E06820F4407040F46F
:101C600080600EE0E069FEF771FC00282061F0D092
:101C7000E06840F4006010F4407FE06002D140F47E
:101C80008070E06020696060E06825696FF0010B9A
:101C9000C1051ED56168E06A884200D80846411B2C
:101CA00004D02246284600F0EBF8E8BB1FB1E562FD
:101CB000C4E9015959E0681CE0626060E069401EB7
:101CC000A060E06840F48030E06030462E70BDE8EF
:101CD000F09F17B100F480320AE06068411C616037
:101CE0000670E0680A2E40F48030E06006D00022E2
:101CF000E16A6068814203D90B4602E00122F7E7FE
:101D00000346B4F80CC05B1B5FEA4C5C04D4D4F807
:101D10001CC09C4500DD02B3814200D80146002B67
:101D2000A1EB0008E56200E008E0C4E9015907DD25
:101D300022461946284600F0A3F808B15046C6E7E7
:101D4000B8F1000F09D0A169E5626560A1EB080058
:101D5000A061E06840F01000E06047B16168A069F0
:101D6000E562491B08446560A0615846AFE730460C
:101D7000ADE700002DE9F041044616460D464769DF
:101D8000007B80072ED03846FFF72FFE50BB3EB3B6
:101D9000012E02D0022E25D104E0204600F04DF99C
:101DA00005441DE03846FFF72EFEE168002841F0AB
:101DB0001001E16005DA204600F058F80120BDE886
:101DC000F081C9030BD56268E16A914200D81146DF
:101DD000A26911442269891A814200DD084605443E
:101DE000002D01DA0220EAE7E16A6068E2688142D8
:101DF00006D29103E06203D522F4003141F01002D3
:101E0000A6690027AE4213DCE16A814201D90B4684
:101E100000E0034603EB060C2369ACEB030CAC4576
:101E200006DD814201D98C4600E084469C4505D1FF
:101E3000A760276042F02000A5620DE0AD1BE669B7
:101E4000AE1B8142A66000D90846C01A281A20603D
:101E50005819606022F0200003490840E06000202B
:101E600084F84870ABE70000BFCFD7FFC16821F40A
:101E7000001141F08001C160002181600160704764
:101E80002DE9F74F15460C464FF0FF3B3848D76811
:101E9000D2F814A0074209D05046A969FFF7ABFD5C
:101EA000002819DB3248C0430740EF604FF000497B
:101EB0006FF000484C4501D3464600E026460099A5
:101EC0003B4650463246FFF781FDA96920F00042AB
:101ED000B21A1144A96128B12846FFF7C7FF584636
:101EE000BDE8FE8FA41BE5D10020F9E770B50446DC
:101EF0000569C06A6168884200D80846E16821F433
:101F00002011E160C90312D5A84208D02246411B26
:101F10002846FFF7B5FF10B14FF0FF3070BD00202D
:101F2000E562C4E90150E06820F48030E060002000
:101F300070BD10B50446C06820F02000E060A16AC2
:101F4000A06988420DD02046FFF7D0FFE06820F45A
:101F5000405040F01000E060A06AA0612069E0629B
:101F6000606044F24001E0688843E06010BD00001A
:101F70001000020070B505460C460A2000E06D1CFA
:101F800000F054F835B128780028F8D102E0641C3C
:101F900000F04CF814B120780028F8D1BDE870406A
:101FA0000A2000F043B8000010B5014602A0FFF778
:101FB000E1FF012010BD00005349475254524544EF
:101FC0003A2052656469726563743A2063616E27D2
:101FD00074206F70656E3A200000000010B5012873
:101FE00005D0002103A0FFF7C5FF012010BD09A106
:101FF000F8E7000053494752544D454D3A204F757C
:1020000074206F662068656170206D656D6F7279F0
:10201000000000003A2048656170206D656D6F72A8
:102020007920636F727275707465640008B56946D3
:102030008DF800000320ABBE08BD10B50146C26894
:10204000900703D0900607D5886A0AE000F076F87A
:1020500001210160881E10BD8B69486818440B6916
:10206000C01A91F848301BB191F84910401A10BDC0
:102070001103FCD50028FADD401E10BD10B5431C2D
:1020800002E010F8011B71B18107FAD14FF0013263
:1020900002C88C1A8C4314EAC211F9D0C01A0A067D
:1020A00003D0C01E10BDC01A10BD0A0401D0801E8E
:1020B00010BD0902FCD0401E10BD00000000000051
:1020C00030B44FF0013C50F8042B51F8043BCCFAEB
:1020D00052F4D51A20D1FCB950F8042B51F8043B26
:1020E000CCFA52F4D51A17D1B4B950F8042B51F8E0
:1020F000043BCCFA52F4D51A0ED16CB950F8042B2B
:1021000051F8043BCCFA52F4D51A05D1002CDAD0A0
:1021100030BC4FF00000704729BAB1FA81F111F0DC
:102120001801D1F120008440F2D1CA40CB4012F016
:10213000FF0213F0FF0330BCD01A7047004870470D
:1021400034010020FEE7000040F2BC10C2F20000A3
:1021500000F084B940F2E410C2F2000000F04CBC80
:1021600040F24420C2F2000000F046BC704700007C
:1021700072B6000090F82020013A012A08D80068C1
:1021800000F114020020136819431160704700BF6A
:1021900000F1240201204FF48021136819431160DB
:1021A0007047000010B590F820E0D0F800C0AEF104
:1021B000010EBEF1010FDCF808E011D81EF0E05F5F
:1021C00018D0CEF301640120A04018608B68DBB109
:1021D000D1F804E0C86840EACE0040EA030E17E0F8
:1021E00000F1240301204FF480211A681143196083
:1021F00010BD00BF00F1240301204FF400111A6844
:102200001143196010BD00BF0868CB6843EA405E07
:102210000CF5C07000EB0413240140F804E00C69D5
:10222000184640F8044F097D012903D1016841F4A3
:102230008071016050680121D860106898600020AA
:102240001A681143196010BD90F82020013A012A44
:1022500030D8B0B546F20060C4F20000026842F027
:1022600001020260026822F47C520260D1F814E09C
:10227000CC694A6A0368012C43EA022202600EF02C
:102280001F024FF0010303FA02F2C3696FEA020C66
:1022900023EA0203C36113D02CBBC36803EA0C0317
:1022A000C360CB688C8844EA034300EBCE0423640C
:1022B0000B4611E0416A41F48021416201207047E0
:1022C000C3681343C3600B688C8844EA034300EB84
:1022D000CE04236401F10C038C681B8843EA044399
:1022E00000EBCE04636443688D6943EA0204D1F8CD
:1022F00010E0096A002D08BF03EA0C04446043693A
:10230000BEF1000F43EA020408BF03EA0C040129EE
:10231000446102D1C1691143C161016821F0010129
:1023200001600020B0BD000070470000B0B590F81B
:102330002040013C012C7DD8D0F800C000290CBF02
:10234000DCF80C40DCF81040A4077DD00CF5D87503
:102350004FEA011C55F80C4014F00404946055F841
:102360000CE005EB011C19BF4FEADE0555604FEA92
:102370005E551560DCF80050E64605F00205D560B4
:102380005EF8044F24075ABFDEF8004004F00F0443
:1023900008241461DEF800400029C4F30724946186
:1023A000DEF800504FEA15455561DCF808201A7038
:1023B000026802EB0112D2F8B8214FEA12225A70D9
:1023C000026802EB0112D2F8B8214FEA12429A7069
:1023D000026802EB0112D2F8B8214FEA1262DA70F9
:1023E000026802EB0112D2F8BC211A71026802EBFA
:1023F0000112D2F8BC214FEA12225A71026802EB94
:102400000112D2F8BC214FEA12429A71026802EB23
:102410000112D2F8BC214FEA1262DA7100680CBFD7
:1024200000F10C0100F11001002020220B681A437A
:102430000A60B0BD00F1240101204FF480220B6836
:102440001A430A60B0BD00BF00F1240101204FF41F
:1024500000120B681A430A60B0BD00002DE9F04F6E
:1024600081B0044600684669D0F804908768D0F8C7
:102470000CB0D0F810A0D0F81880F10704D10025D6
:1024800030071DD424E000BFF90710D00121BA079E
:10249000816009D4780700F1AF80380700F1B68079
:1024A000204600F041FA02E0204600F03FFA002505
:1024B000F80500F18780F80300F1B180300707D5F7
:1024C0001BF0100004D0206845F400751021C16095
:1024D000700708D51BF0080005D020680821C160EE
:1024E000204600F0A9F9B00706D52068C06880072B
:1024F00002D0204600F0A2F9700607D51AF01000AD
:1025000004D0206845F4806510210161B00608D52B
:102510001AF0080005D0206808210161204600F06B
:10252000CFF9F00606D520680069800702D0204662
:1025300000F0C8F9B00308D519F0100005D02068E4
:1025400010214160204600F0BFF9F00308D519F0D2
:10255000080005D0206808214160204600F0F0F90D
:10256000300440F19B805FEA497040F1948006F4AA
:10257000807008EA102028435FEA8871014648BF4E
:1025800041F00201B20558BF01465FEA48700D46AE
:1025900048BF45F00405700558BF0D46300540F1B1
:1025A0007A8018F0700000F0768010380009052855
:1025B0006CD8DFE800F003655D61596945F00805F6
:1025C00064E000BF20684FF48071BA0581600BD4CD
:1025D000780515D438051DD4204600F0A9F9F80374
:1025E0007FF56CAF1BE000BF204600F0A3F9F803B5
:1025F0007FF564AF13E000BF4FF4006558E700BFFC
:1026000005F50055F8037FF559AF08E04FF4805504
:102610004EE700BF05F58045F8037FF54FAF206812
:102620004FF48031BA0381600AD4780310D43803A0
:1026300014D4204600F080F930073FF541AF47E75A
:10264000204600F07BF930073FF53AAF40E700BF86
:1026500005F5004530073FF533AF39E705F580351F
:1026600030073FF52DAF33E745F080050EE000BFA2
:1026700045F020050AE000BF45F0400506E000BF38
:1026800045F0100502E000BF45F4807520688169BF
:1026900021F07001816120680421416055B1606AB8
:1026A00040EA05012046616201B0BDE8F04FFFF746
:1026B0003BBE00BF01B0BDE8F08F0000002804BFA2
:1026C00001207047B0B5044690F8200010B92046AC
:1026D00000F06EF82068016841F00101016000F02F
:1026E00055FC054620684168C90705D100F04EFC3D
:1026F000401B0B28F6D310E0016821F002010160B5
:1027000000F044FC054600BF2068416889070DD5EC
:1027100000F03CFC401B0B28F6D3606A052140F416
:1027200000306062012084F82010B0BD217E026874
:10273000012922F0800208BF80320260617E0268B7
:10274000012922F0400208BF40320260A17E0268E7
:10275000012922F0200208BF20320260E17E0268D7
:10276000012922F0100218BF10320260217F026896
:10277000012922F0080208BF08320260617F026866
:10278000012922F0040208BF04320260D4E901C228
:10279000D4E9033561691A432A431143ACF10102BC
:1027A0001143C16100200121606284F82010B0BD96
:1027B00080B586B046F200410068C4F200010022F4
:1027C00088420592CDE903220292019202D006B01E
:1027D00080BD00BF43F630000092C4F202000369DE
:1027E00043F000730361036903F000730093009BDF
:1027F0000092036843F002030360006800F00200E7
:10280000009000984FF4407001900220CDE9020240
:10281000032004900920059001F5D03001A900F0B3
:10282000E5FA14200021002200F032FC142000F010
:102830001DFC06B080BD000070470000016846F234
:102840000042C4F20002914239D140F29C11C2F21E
:102850000001096840F20122914218BF704770B52B
:1028600084B040F2EC2540F29414C2F20005C2F2AA
:10287000000406462846214601F0A6FE01A8294686
:1028800001F0F6FEDDE901104FF6FC72401A02403D
:1028900040F2A420C2F2000001F0E0FA40F29C12E3
:1028A000C2F20002304600212346FFF73FFD0198A7
:1028B00010B1029002F062F804B0BDE870407047B9
:1028C000704700007047000070470000B0B5044634
:1028D00090F8200001281DD1022084F820002068F3
:1028E000016821F00101016000F050FB054600BFC6
:1028F00020684068C00713D000F048FB401B0B283D
:10290000F6D3606A40F400306062052084F820004D
:102910000120B0BD606A40F4002060620120B0BDBB
:1029200000206062B0BD00007047000070470000EA
:1029300070470000704700007047000070470000BB
:102940007047000070B5866D044600F01FFB94F8D8
:102950003510022928D105462068216C026822F032
:1029600016020260426922F08002426109B9A16C3C
:1029700019B1016821F008010160016821F001012D
:10298000016000BF20680068C00715D000F0FEFAA3
:10299000401B0628F6D320206065032084F835000C
:1029A000002184F8341070BD802060650120002172
:1029B00084F8341070BD00BFE06D3F2101FA00F0D3
:1029C000B060012084F835000020002184F8341024
:1029D00070BD000090F83510022909D1052180F85A
:1029E00035100068016821F0010101600020704786
:1029F0008021416501207047F0B581B00021009130
:102A000040F23401C2F200010B68D0E9166148F2CD
:102A1000B51537680822C1F64E358A403A42A3FB05
:102A200005350CD003681C68640708D51C6824F0C1
:102A300004041C60B260426D42F001024265012252
:102A40008A403A4208D003685B691B0604D5B2602D
:102A5000426D42F00202426504228A403A4208D0A6
:102A600003681B689B0704D5B260426D42F0040204
:102A7000426510228A403A4219D001680B681B0750
:102A800015D5B2600B680A685B0309D4D20509D476
:102A90000A6822F008020A60016C29B907E000BF49
:102AA000110341D4016C11B1044688472046C26D20
:102AB000202101FA02F33B4243D001680F68FF0670
:102AC0003FD5B36090F835700B68052F1CD123F00B
:102AD00016030B604B6923F080034B61036C0BB949
:102AE000836C1BB10B6823F008030B603F219140FE
:102AF000B160012180F83510016D0022002980F8B5
:102B0000342054D158E000BF0A685B0310D4D205CA
:102B100012D40A6822F010020A60012180F83510F0
:102B2000002180F8341007E0816C0029BCD1BEE799
:102B3000110301D4416C00E0C16B11B10446884718
:102B40002046416DC1B3416DC9072ED0052180F8E3
:102B500035100168AA0A0B6823F001030B60009B83
:102B60000133934200931AD80B68DB0717D0009B00
:102B700001339342009312D80B68DB070FD0009B00
:102B80000133934200930AD80B68DB0707D0009B00
:102B900001339342009302D80B68DB07DFD1012198
:102BA00080F83510002180F83410C16C21B101B0DB
:102BB000BDE8F040084700BF01B0F0BD2DE9F0418D
:102BC000044600F0E3F9ECB10546022084F8350034
:102BD0000020216884F83400086820F001000860B3
:102BE00021680868C00711D000F0D0F9401B052803
:102BF000F6D9032520230320636584F83550BDE80A
:102C0000F08100BF0120BDE8F08100BF086848F2F4
:102C10003F02CFF21002D4E9013500EA020C04F1C0
:102C20000C0898E8C10143EA0C032B431843D4E98C
:102C3000072E304338431043626A40EA0E00042AEC
:102C400040EA08031CD1206BD4E90A2E40EA0E00AA
:102C5000184308604869BEF1000F20F0030040EA05
:102C6000020040F0040C11D0B8F5005F36D0B8F186
:102C7000000F45D1022A46D0012A3BD032B942E0AA
:102C80000B60486920F0070040EA020C01F0F800F0
:102C90004AF6AB221038CAF6AA22A0FB02231A0970
:102CA00045F2B433C1F814C0C0F600039A5C40F298
:102CB000FF335F284FF03F0021EA030100FA02F0E2
:102CC00088BF0431C4E91612886000230125002062
:102CD000636584F83550BDE8F08100BF032AD5D87C
:102CE000012540230120DFE802F0030E030500BFA9
:102CF00082E700BFAEF1C070B0FA80F0400904E096
:102D0000032A04D3C2D1CEF300600028BED001252F
:102D100040230120636584F83550BDE8F081000050
:102D200090F834C0BCF1010F04BF0220704770B5A9
:102D30004FF0010C80F834C0D0F858E090F835C05E
:102D4000BCF1010F38D14FF0020C80F835C04FF0C4
:102D5000000CC0F854C0D0F800C08468056CC06D89
:102D6000DCF80060402C26F48026CCF80060CCF81B
:102D700004300B4604BF13460A463F2101FA00F017
:102D8000CCF80830CCF80C20CEF80800DCF80000B5
:102D900040F01600CCF800002DB1DCF8000040F047
:102DA0000800CCF80000DCF8000040F00100CCF88E
:102DB0000000002070BD00BF002180F83410022008
:102DC00070BD0000B0B5044600F0E0F8054640F2E2
:102DD0002C00C2F200000078611C18BF044400BF40
:102DE00000F0D4F8401BA042FAD3B0BD2DE9F04F5B
:102DF00083B000F1200200F13E4742F2004500920C
:102E000007F1FF77C4F202050A224FEAB726A8426B
:102E100008BF092200254FF000084FF00009092ED5
:102E200038BF4FEAB72201920AE000BF09F1010959
:102E300008F10208B9F1100F05F1040500F0A280B5
:102E40000F68012202FA09FE17EA0E0AEED0D1F845
:102E500004C003220CF003077E1E02FA08F4012EC0
:102E60006FEA040B12D88468CE6804EA0B0406FAF1
:102E700008F634438460446824EA0E06CCF3001458
:102E800004FA09F42643466004E000BF032F01D191
:102E900003271EE0C6688C6806EA0B0604FA08F4ED
:102EA0002643022FC66014D16FF00302009E02EA8F
:102EB000590756F807C005F01C040F220B69A24001
:102EC0002CEA0202A3401A43F251D1F804C00CF0DC
:102ED0000307026807FA08F302EA0B021A431CF41C
:102EE000403F0260A2D0002243F644030292C4F2A3
:102EF00002031A6843F6004442F480421A601A68DA
:102F0000C4F2010402F480420292029A29F0030200
:102F10004FF6084C2244CFF6FF7C52F80C3005F0F7
:102F20000C070F26BE40B343019E06FA07F73B434A
:102F300042F80C30A2684B6842EA0A0743F60C4C90
:102F4000DE0258BF22EA0A07A760C4F2010CDCF8CF
:102F500000209E0242EA0A0758BF22EA0A07CCF87C
:102F6000007062689E0342EA0A0758BF22EA0A0715
:102F700067602268DB0342EA0A0758BF22EA0A07B1
:102F8000276053E703B0BDE8F08F000040F2103037
:102F9000C2F200000068704740F22C0040F210318D
:102FA000C2F20000C2F2000100780A681044086012
:102FB0007047000080B543F60040C4F2020001688B
:102FC00041F400710160016841F4806101600168B1
:102FD00041F480710160032000F086F80F2000F0BA
:102FE00005F800F027F8002080BD000070B540F221
:102FF0002C06C2F2000640F234013278C2F200011F
:103000004FF47A730968B3FBF2F20446B1FBF2F1B4
:10301000084600F09DFB0F2C4FF0010508D838B989
:103020004FF0FF3021460022002500F031F8746097
:10303000284670BD82B0002043F640010190C4F2E2
:1030400002014A6842F480424A604A6802F48042BF
:103050000192019A0090086840F08050086008686A
:1030600000F080500090009802B07047002848BFE0
:10307000704700F01F01012202FA01F11C2202EA4E
:10308000D0004EF20012CEF20002815070470000D4
:1030900010B54EF60C5CCEF2000CDCF80030C3F339
:1030A000022E8EF00704042C28BF0424BEF1030373
:1030B0004FF0FF3E0EFA04F438BF0023A1439940BD
:1030C0000EFA03F39A43114300F00F0200F160433C
:1030D0000901043A03F564436244002848BF02F141
:1030E0000C03197010BD00004EF60C51CEF2000119
:1030F0000A684FF6FF031A4060F30A2242F080602C
:1031000040F0FD700860704770B582B000200190FB
:1031100043F64000C4F202000168402641F08051AD
:1031200001600068C4F20E2600F080500190019802
:1031300047F204050120C4F200053060FFF726FFC6
:10314000044600BF2868C00306D4FFF71FFF001B1A
:10315000B0F57A7FF6D90EE001207060FFF716FF18
:10316000044600BF2868800308D4FFF70FFF001B48
:10317000B0F57A7FF6D9032002B070BD002002B00E
:1031800070BD0000002804BF012070472DE9F04108
:1031900043F60808C4F202080446D8F8F8030D46BE
:1031A00000F00F00884207D288F8F853D8F8F803E7
:1031B00000F00F00A84277D12068810717D541079A
:1031C00005D5D8F8001041F4E051C8F80010010707
:1031D00005D5D8F8001041F46041C8F80010D8F8BF
:1031E0000010A26821F0F0011143C8F80010C007D8
:1031F00040D1D8F8F80300F00F00A84207D988F8AA
:10320000F853D8F8F80300F00F00A8424CD120681A
:10321000410707D5D8F80010E26821F4E0511143C6
:10322000C8F80010000708D5D8F80000216920F47C
:10323000604040EAC100C8F8000000F07DF8D8F80E
:10324000001045F29C32C1F30311C0F60002515C3C
:1032500040F2340220FA01F140F23000C2F20000E4
:103260000068C2F200021160FFF7C0FE0020BDE856
:10327000F08100BF6068811E022907D258F8081C3F
:1032800089015CBF0120BDE8F08111E0012807D170
:1032900058F8081C89035CBF0120BDE8F08107E0F5
:1032A00058F8081C890703D40120BDE8F08100BF4D
:1032B000D8F8001021F003010843C8F80000FFF718
:1032C00065FE064641F28837D8F80000616800F0D4
:1032D0000C00B0EB810F8CD0FFF758FE801BB8427A
:1032E000F2D90320BDE8F08140F2340043F6080132
:1032F000C2F20000C4F202010068096845F2AC3273
:10330000C1F38221C0F60002515CC8407047000042
:1033100040F2340043F60801C2F20000C4F2020198
:103320000068096845F2AC32C1F34231C0F60002D0
:10333000515CC8407047000010B543F60404C4F265
:103340000204606800F00C0008280BD0042819BFA4
:1033500042F20040C0F2F40047F64000C0F27D1097
:1033600010BD00BF206821682368490247F640016C
:10337000C0F27D1100F03F02C3F388105CBF42F23F
:103380000041C0F2F401A1FB00010023FCF7F4FFAF
:1033900021680222C1F3014102EB4101B0FBF1F0CF
:1033A00010BD0000002804BF012070472DE9F04146
:1033B00082B00446007843F60006C007C4F2020655
:1033C0000CD0B06800F00C00042840F08180306818
:1033D000800303D56068002800F0688120788007AA
:1033E0001BD5B06810F00C0F09D0B06800F00C00CD
:1033F000082840F087807068400200F183803068C0
:10340000800703D5E068012840F0508130682169C9
:1034100020F0F80040EAC10030602078000713D4A3
:10342000207840072AD4A569002D00F03A81B068C1
:1034300000F00C00082840F0A580012D40F00E811E
:10344000012002B0BDE8F0816069002800F08280B0
:103450000020C4F247200121C0F8801EFFF796FD2E
:10346000054600BF706F8007DAD4FFF78FFD401B61
:103470000228F7D9032002B0BDE8F081306C5FEA82
:10348000C0080AD400200190306C40F080503064B5
:10349000306C00F080500190019847F20007C4F2B0
:1034A00000073868C00547D4386840F48070386039
:1034B000FFF76CFD054600BF3868C0053CD4FFF738
:1034C00065FD401B0228F7D9032002B0BDE8F0815A
:1034D000B06800F00C00082803D1706840023FF586
:1034E00076AF61683068B1F5803F07D0B1F5A02FA5
:1034F00040F09A8040F480203060306840F48030A2
:1035000030609AE0E068002840F20000C4F24720F2
:103510005CD001210160FFF739FD05463068800766
:103520003FF574AFFFF732FD401B0228F6D90320A8
:1035300002B0BDE8F08100BFA168306F012905D05D
:10354000052955D140F004003067306F40F001008C
:10355000306756E00020C4F247200021C0F8801EEA
:10356000FFF714FD054600BF706F80077FF558AF69
:10357000FFF70CFD401B0228F6D9032002B0BDE87E
:10358000F08100BF0027C4F2472700203866FFF70C
:10359000FDFC022D05460DD13068800140F18A8086
:1035A000FFF7F4FC401B02284FF00300F4D902B0EF
:1035B000BDE8F0813068800173D5FFF7E7FC401B60
:1035C00002284FF00300F5D9F1E700BF00210160A8
:1035D000FFF7DCFC054600BF306880077FF51DAFB4
:1035E000FFF7D4FC401B02284FF00300F4D9DEE7BC
:1035F00020F001003067306F002920F004003067B0
:103600007AD0FFF7C3FC054641F28837306F800758
:1036100000F18480FFF7BAFC401BB842F6D90320C2
:1036200002B0BDE8F08100BF20F480303060306827
:10363000002920F4802030607AD0FFF7A7FC0546EF
:10364000306880033FF5CAAEFFF7A0FC401B64283A
:10365000F6D9032002B0BDE8F08100BF7068E169CF
:1036600000F480028A4221D1216A00F03F028A429E
:103670001CD147F6C071626A0140B1EB821F15D1BF
:10368000A16A4FF6FF73C903994300F44032A1F5D4
:1036900080318A420AD1E16A00F07060B0EB016FBC
:1036A00004D1002002B0BDE8F08100BF012002B0CB
:1036B000BDE8F08104F11C052FCD084340EA8210DB
:1036C000D9034FF6FF729143A1F5803140EA0560BE
:1036D0000843706001203866FFF758FC044600BFBD
:1036E00030688001DDD4FFF751FC001B02284FF049
:1036F0000300F5D95BE700BFFFF748FC054641F240
:10370000883700BF306F800708D5FFF73FFC401BAC
:10371000B8424FF00300F5D949E700BFB8F1000FF8
:103720003FF581AE306C20F0805030647BE600BF06
:10373000FFF72CFC054600BF306880037FF54EAED6
:10374000FFF724FC401B64284FF00300F4D92EE758
:10375000411E0020B0EB116F1CBF012070474EF2DC
:103760001002CEF2000251604EF62351CEF200015B
:10377000F0230B70072190601160704770470000C4
:1037800070470000B0B582B001680A68CC684B6928
:1037900002F02F05202D04F0200505D125B102B03F
:1037A000BDE8B04000F07EBD5FEA027C1EBF03F0C2
:1037B000010E04F4907313EB0E0341D1036BD50695
:1037C00018D5012B16D114F0100313D0002201924A
:1037D0000A6801924A680192019A496949064BD4E4
:1037E000818DC28DC38D002B18BF914240F0F481B2
:1037F00002B0B0BD13062DD514F080032AD090F886
:103800004120212AF4D18268B2F5805F03D1026998
:10381000002A00F06782026A531C036212784A6031
:10382000C28C013A1304C284E2D1C86820F080003F
:10383000C860C86840F04000C86002B0B0BD00BFBA
:10384000D30718BF14F4807340F0D080530700F101
:10385000D380D8E05206CBD514F04002C8D0CA6855
:1038600022F04002CA60202180F8411002B0BDE879
:10387000B04000F051BB00BFC16B0A68526893B200
:10388000002BB5D0858DAB42B2D2C285C969B1F5E6
:10389000807F00F0A080016851E8031F026821F4D6
:1038A000807142E80313DBB1016851E8031F02682D
:1038B00021F4807142E8031393B1016851E8031FBA
:1038C000026821F4807142E803134BB1016851E8AA
:1038D000031F026821F4807142E80313002BDAD140
:1038E000016851E8051F026821F0010142E8051353
:1038F000BBB3016851E8051F026821F0010142E8ED
:10390000051373B3016851E8051F026821F0010136
:1039100042E805132BB3016851E8051F026821F046
:10392000010142E80513002BDAD11AE0016851E8E1
:10393000051F026821F0400142E80513DBB1016870
:1039400051E8051F026821F0400142E8051393B1D8
:10395000016851E8051F026821F0400142E80513A3
:103960004BB1016851E8051F026821F0400142E8AF
:103970000513002BDAD1202180F8421000210163C9
:10398000016851E8031F026821F0100142E80313A7
:10399000DBB1016851E8031F026821F0100142E821
:1039A000031393B1016851E8031F026821F010016D
:1039B00042E803134BB1016851E8031F026821F08C
:1039C000100142E80313002BDAD1C16B044608460C
:1039D000FEF7B8FF204602214163818DC28D891A0E
:1039E00089B202B0BDE8B040FFF7C8BE436C43F0F7
:1039F00001034364530706D5BEF1000F03D0436CA7
:103A000043F002034364930706D5BEF1000F03D0D1
:103A1000436C43F004034364BCF1000F06D55EEA37
:103A2000050303D0436C43F008034364436C002B4D
:103A30003FF4DEAE920605D525B1044600F032FC17
:103A4000216820464969426C01F0400102F00802F9
:103A5000891800F0B98000BF016851E8031F0268AF
:103A600021F4907142E80313BBB3016851E8031FCE
:103A7000026821F4907142E8031373B3016851E8BE
:103A8000031F026821F4907142E803132BB301680D
:103A900051E8031F026821F4907142E80313002BE0
:103AA000DAD11AE0016851E8051F026821F001012E
:103AB00042E80513DBB1016851E8051F026821F0F7
:103AC000010142E8051393B1016851E8051F02683E
:103AD00021F0010142E805134BB1016851E8051FCF
:103AE000026821F0010142E80513002BDAD1016BD5
:103AF000012924D1016851E8031F026821F0100157
:103B000042E80313DBB1016851E8031F026821F0AA
:103B1000100142E8031393B1016851E8031F0268E2
:103B200021F0100142E803134BB1016851E8031F73
:103B3000026821F0100142E80313002BDAD12021A2
:103B400080F842100021016301684969490640F18B
:103B5000C380016851E8051F026821F0400142E876
:103B60000513DBB1016851E8051F026821F040012F
:103B700042E8051393B1016851E8051F026821F07E
:103B8000400142E805134BB1016851E8051F026886
:103B900021F0400142E80513002BDAD1C16B002966
:103BA00000F09A8044F26502C0F60002044608461E
:103BB0000A65FEF70FFF00283FF41AAEE06B016DB7
:103BC00002B0BDE8B04008470446FFF7D9FD002029
:103BD000606402B0B0BD00BF891A00BF026852E83D
:103BE000032F036822F4907243E80325BDB30268F3
:103BF00052E8032F036822F4907243E8032575B35B
:103C0000026852E8032F036822F4907243E8032508
:103C10002DB3026852E8032F036822F4907243E840
:103C20000325002DDAD11AE0026852E8052F036857
:103C300022F0010243E80525DDB1026852E8052FB4
:103C4000036822F0010243E8052595B1026852E8B5
:103C5000052F036822F0010243E805254DB10268F3
:103C600052E8052F036822F0010243E80525002DE4
:103C7000DAD1202280F8422000220263026852E852
:103C8000032F036822F0100243E80325DDB1026828
:103C900052E8032F036822F0100243E8032595B190
:103CA000026852E8032F036822F0100243E803255C
:103CB0004DB1026852E8032F036822F0100243E876
:103CC0000325002DDAD1022289B2426302B0BDE899
:103CD000B040FFF753BD00BF02B0BDE8B040FFF7F2
:103CE0004FBD00BF026A32F8023B6FF35F234B60A7
:103CF000026295E5002804BF0120704710B5044614
:103D000090F8410028B9002084F84000204600F0D7
:103D100021F8242084F841002068C16821F4005172
:103D2000C160204600F03EFB2068016921F490410B
:103D30000161416921F02A014161C16841F40051EA
:103D4000C16000202021606484F8411084F8421092
:103D5000606310BD2DE9F04387B0044641F2004096
:103D60002168C4F20100002681420696CDE904666E
:103D70000396029602D007B0BDE8F08343F6300107
:103D80000196C4F202014A6946F2284842F0200234
:103D90004A614A6900F5823002F020020192019ADC
:103DA00001960A68C4F2020842F040020A600968FB
:103DB00001F04001019101994FF4844102910221E7
:103DC000CDE90316032105910821069102A9FFF709
:103DD0000DF840F2E415C2F200054FF020674FF4F1
:103DE00080692846C5E90087C5E90266C5E90496E9
:103DF000C5E90666C5E90866FEF7E0FE002818BFBB
:103E0000FEF7B6F9E563AC6340F2442508F17800AB
:103E1000C2F200054021C5E9000705F108000022B3
:103E200080E806022846C5E90522C5E907226A623C
:103E3000FEF7C4FE002818BFFEF79AF947200021BC
:103E40000022A563AC63FFF723F94720FFF70EF9C3
:103E500007B0BDE8F083000070470000B0B590F8EF
:103E60004140202C1CBF0220B0BD134600294FF05A
:103E7000010218BF002B01D11046B0BD0022212441
:103E800001628384C384426480F84140D0F838C022
:103E900044F2ED1E44F29D25C0F6000EC0F600056A
:103EA0000468CCE90FE544F27105C0F60005CCE9E1
:103EB0001352221D04466046FEF732FF2168204659
:103EC0006FF040020A6000BF016851E8051F0268F8
:103ED00041F0800142E80513DBB1016851E8051F9C
:103EE000026841F0800142E8051393B1016851E88E
:103EF000051F026841F0800142E805134BB10168DB
:103F000051E8051F026841F0800142E80513002BCB
:103F1000DAD100221046B0BD7047000070470000A3
:103F2000FEE7000080B540F2BC1046F20041C2F24C
:103F30000000C4F200010522002380E80E0000F119
:103F40000C014FF4A02C4FF4801E81E808504FF470
:103F500080710183C0F81A30FEF7B0FB002808BF5B
:103F600080BDBDE88040FEF703B9000080B582B097
:103F70000020019043F63000C4F2020001680022E4
:103F800041F4800101600068002100F4800001908C
:103F900001983920FFF77CF83920FFF767F84520B2
:103FA00000210022FFF774F8452002B0BDE88040F0
:103FB000FFF75CB883B0002043F630010290C4F2F2
:103FC00002010A6842F002020A600A6802F0020274
:103FD0000292029A01900A6842F040020A600A685E
:103FE00002F040020192019A0090086840F08000BF
:103FF0000860086800F080000090009803B07047E7
:1040000080B540F2A42041F20041C2F20000C4F2A7
:10401000010100234FF00C0C4FF4E13280E80E0058
:10402000C0E90333C0E905C3C361FFF763FE00289D
:1040300008BF80BDBDE88040FEF79AB8FEE70000EB
:10404000FEE700007047000070470000FEF7A4BFC5
:104050004EF68850CEF20000016841F47001016014
:1040600070470000806B0021C185C184FFF788BBC9
:10407000806B01684A6990F84130212B2DD112F0F4
:1040800080022AD00021C184016851E8031F026820
:1040900021F0C00142E80313DBB1016851E8031FBE
:1040A000026821F0C00142E8031393B1016851E8AE
:1040B000031F026821F0C00142E803134BB10168FD
:1040C00051E8031F026821F0C00142E80313002BEE
:1040D000DAD1202180F841100168496990F8422026
:1040E000222A40F07D8011F0400179D00021C18565
:1040F000016851E8031F026821F4907142E803133C
:10410000BBB3016851E8031F026821F4907142E8D3
:10411000031373B3016851E8031F026821F490711F
:1041200042E803132BB3016851E8031F026821F42E
:10413000907142E80313002BDAD11AE0016851E8CC
:10414000051F026821F0010142E80513DBB1016897
:1041500051E8051F026821F0010142E8051393B1FF
:10416000016851E8051F026821F0010142E80513CA
:104170004BB1016851E8051F026821F0010142E8D6
:104180000513002BDAD1016B012924D1016851E814
:10419000031F026821F0100142E80313DBB101683C
:1041A00051E8031F026821F0100142E8031393B1A4
:1041B000016851E8031F026821F0100142E803136F
:1041C0004BB1016851E8031F026821F0100142E879
:1041D0000313002BDAD1202180F842100021016363
:1041E000416C41F010014164FFF7CABA0168806B6D
:1041F0000968C90548BFFFF78FBE0021C18400BF11
:10420000016851E8051F026821F0800142E80513AA
:1042100083B3016851E8051F026821F0800142E87C
:1042200005133BB3016851E8051F026821F08001C6
:1042300042E80513F3B1016851E8051F026821F057
:10424000800142E80513002BDAD113E0016851E840
:10425000031F026841F0400142E80313002B08BF2E
:104260007047016851E8031F026841F0400142E8CD
:10427000031393B1016851E8031F026841F0400144
:1042800042E803134BB1016851E8031F026841F093
:10429000400142E80313002BD8D17047806BFFF731
:1042A0003DBE000081B090F84210222921D18368E0
:1042B0000246B3F5805F09D152F8281F52F8183C26
:1042C000002B63D003685B680AE000BF52F8281F28
:1042D00013B90369002BF5D003685B6803F07F0313
:1042E0000B70116801311160C18D01390A04C1855B
:1042F00002D001B0704700BF0168CA6822F02002F6
:10430000CA60CA6822F48072CA604A6922F0010257
:104310004A61202180F8421000214163026B012A8A
:104320003CD10163016851E8031F026821F01001CC
:1043300042E80313DBB1016851E8031F026821F072
:10434000100142E8031393B1016851E8031F0268AA
:1043500021F0100142E803134BB1016851E8031F3B
:10436000026821F0100142E80313002BDAD1016842
:104370000A68D20606D5002200920A6800924968AF
:1043800000910099818D01B0FFF7F8B90268526879
:104390006FF35F2221F8022B8162A5E701B0FFF7DE
:1043A0005BBD0000B0B50446006804F108030ECB05
:1043B0000569194325F440552A4302616269E3699E
:1043C0001143C268194349F20C639A431143C16017
:1043D0004169A26921F4407141F20043114340F464
:1043E0008062C4F201039A42416103D1FEF790FF5B
:1043F00002E000BFFEF778FFE1694FF69C75636845
:104400001922C0F6FF75B1F5004FA0FB02011FD1C4
:104410005A00DB0FFBF7B0FF48F21F51C5F2EB115A
:10442000A0FB01235A0905F1805302FB030032234C
:1044300003EBC000A0FB01014FF4F87000EA11107B
:1044400000EB0210C1F34211084421688860B0BD3E
:104450009A009B0FFBF790FF48F21F51C5F2EB113A
:10446000A0FB01235A0902FB0500322303EB0010D5
:10447000A0FB0101F02000EA511000EB0210C1F393
:104480004311084421688860B0BD000040F2A420B8
:10449000C2F20000FFF776B9FEE7000040F2EC2020
:1044A000C2F2000000F0F8B910B592B006AC204698
:1044B0003021FCF70BF8002043F640010590CDE9D0
:1044C0000300CDE901000090C4F202010A68012353
:1044D00042F080520A60096801F080510091009911
:1044E00047F200010090C4F200010A6863F38F32C2
:1044F0000A600968102201F44041009100990221EC
:10450000CDE90C1008200E905A20CDE90F010420AF
:1045100011902046069109930A92FEF743FFA8B92D
:10452000FEF7F2FDA0B90F200190022002900020BA
:104530004FF480510390CDE9041001A80221FEF749
:1045400021FE002804BF12B010BD72B672B600BFC3
:1045500072B6000010B50446012898BF012400BFC0
:104560002046FBF7F3FF002818BF10BD00F0C4F988
:1045700008B18047F4E7002010BD0000F0B581B01D
:104580000C460546012898BF0125042998BF04243C
:104590000027684621462A460097FCF72DF8009828
:1045A00078B96E4600F0A8F950B1804730462146F0
:1045B0002A460097FCF720F800980028F2D000E087
:1045C000002001B0F0BD000090ED030A9FED252A08
:1045D00080ED040A0A8852BA01EE102AB8EEC11A18
:1045E00021EE021A80ED031A4A8890ED002A52BA91
:1045F00003EE102AB8EEC33A80ED063A9FED1B3A5F
:10460000B4EE401A31EE033A0A794B79F1EE10FA22
:10461000C8BFB0EE413A33EE400A80EE021A62F3B0
:104620000D2302EE103A9FED103AB8EEC22A22EEA8
:10463000032ABBEE043A32EE032A80ED072A897979
:1046400090ED012A03EE101AB8EE433A80ED050A08
:1046500031EE020A80ED083A80ED021A80ED010A7F
:10466000704700BFA005343D0000A03A0000B443ED
:104670002DE9F04F81B080460C680820894600F093
:104680008BFD0546D9F8080005F10801C5E9004091
:104690001020C8E90051C8F8081000F07DFD06465A
:1046A00000F11007D9F81400D5E9001206F10C0446
:1046B000B0602846C6E90012C8E90064C8F808706E
:1046C00000F05CF9D8F80850C8F80440AC4205D2B4
:1046D000D9F818004C46F06045E000BFD8F800B0AB
:1046E0000120A4EB0B0A494600EBAA09B9F1804F5F
:1046F00080F0CC80A5EB0B004FF6FC72B9EB600F9D
:10470000C7F6FF7238BF4FEA6009904228BF6FF0CA
:104710004049B9F1000F0C460AD0B9F1804F80F042
:10472000B9804FEA890000F037FD064601E000BF7E
:1047300000264FEAAA0006EB8007A069594647F811
:10474000040B3046524606EB8905FBF78DFEBBF1A4
:10475000000FC8E90067C8F8085004D0584600F0B8
:104760000DF9D8F80850AF42C8F8047004D2E069D7
:1047700047F8040B3EE000BFD8F800B00120A7EBDB
:104780000B0A00EBAA06B6F1804F80F07F80A5EB04
:104790000B004FF6FC71B6EB600FC7F6FF7138BF28
:1047A0004610884228BF6FF040463EB1B6F1804FB8
:1047B00070D2B00000F0F0FC814601E04FF000093B
:1047C0004FEAAA0009EB8007E069594647F8040B55
:1047D0004846524609EB8605FBF746FEBBF1000F43
:1047E000C8E90097C8F8085004D0584600F0C6F849
:1047F000D8F80850AF42C8F8047007D2206A47F8CA
:10480000040BC8F8047001B0BDE8F08FD8F8009030
:104810000120A7EB090A00EBAA06B6F1804F35D2BA
:10482000A5EB09004FF6FC71B6EB600FC7F6FF7100
:1048300038BF4610884228BF6FF0404646B1B6F1F7
:10484000804F27D2B00000F0A7FC054601E000BF72
:1048500000254FEAAA0005EB8007206A494647F881
:10486000040B2846524605EB8604FBF7FDFDB9F123
:10487000000FC8E90057C8F80840C2D0484600F009
:104880007DF8C8F8047001B0BDE8F08F404600F034
:1048900015F800BF00F052F84AF22C01C4F2991149
:1048A0000022C0E900120021C4F2C811C0E90222AE
:1048B000C0E90422C0E906220162704701A000F0AD
:1048C00005F800BF766563746F720000014645F21B
:1048D000BC30C0F6000000F000F884B0844601A8A7
:1048E0000EC040F2E00001AAC2F200006146009250
:1048F000FBF7D9FEFBF7DCFE40F2B810C2F2000075
:104900000068704701A0FFF7E8FF00BF6261645FC5
:10491000616C6C6F6320776173207468726F776E5F
:1049200020696E202D666E6F2D65786365707469E1
:104930006F6E73206D6F64650000000001A0FFF7CB
:10494000CCFF00BF6261645F61727261795F6E6506
:10495000775F6C656E677468207761732074687226
:104960006F776E20696E202D666E6F2D657863659A
:104970007074696F6E73206D6F646500FBF715BE10
:104980008AB0FEF717FBFFF78FFDFFF713FBFFF76A
:10499000EDFAFFF7C7FAFFF733FB40F2BC14002033
:1049A0000121C2F200040690CDE90400CDE9020025
:1049B000CDE90000CDE90711099069462046FDF7D1
:1049C00043FC2046FDF782FF20460221FDF7D2FB83
:1049D00040F29413C2F2000303F1080220460021C2
:1049E000FDF7A4FC40F20C05C2F2000505F1080633
:1049F000204631462A460123FDF7D4FB4FF47A7056
:104A0000FEF7E0F9F4E75FEA400C08BF91F0000F11
:104A10004FEA8C234FEAC12243EA51514FEA1C501E
:104A200018BF00F5F0404FEA300018BF41F00041D8
:104A30005FEA6C5C00F02980BCF1FF3F08BF40F0EA
:104A400080407047130C06BF12044FF0100C4FF05B
:104A5000000C130E04BF12020CF1080C130F04BF5C
:104A600012010CF1040C930F04BF92000CF1020C24
:104A7000D30F04BF52000CF1010C11464FF000029D
:104A8000A0F11F00A0EB0C00704711F0004F08BF11
:104A9000704731F000413FF4D5AF0B0C06BF09045D
:104AA0004FF0100C4FF0000C0B0E04BF09020CF17C
:104AB000080C0B0F04BF09010CF1040C8B0F04BF91
:104AC00089000CF1020CCB0F04BF49000CF1010C62
:104AD000CCF1200322FA03F341EA030102FA0CF2BB
:104AE000A0EB0C0000F101007047000023F07F47AD
:104AF00020F07F4C80EA030000F00040ACEB07039D
:104B000003F57C5303F1FF032DE9804909B44FEA13
:104B1000144324EA03484FEA154B25EA0B4E0FF2E3
:104B2000042606EB13273E7803FB0667C7F500074C
:104B300007FB06F64FEAD64606F102064FEA54375F
:104B400007FB066CCCF1005C4FEA1C472CEA074CD3
:104B50000CFB06F507FB06F404EB15464FEA961628
:104B600049085FEA320234BF00204FF000404FEAAC
:104B7000D13706FB07FC4FEA1C4C0CFB0BF7D21B92
:104B800003FB0CF761EB07010CFB0EF7B0EB0740E2
:104B900072EB17420CFB08F734BFA2EB0742B2EBF3
:104BA000074261EB17414FEA0C444FEA910706FBBD
:104BB00007FC4FEA1C4C0CFB0BF7B0EBC74072EB49
:104BC000573203FB0CF734BFA2EBC742B2EBC7422C
:104BD00061EB57310CFB0EF7B0EBC70072EB57726D
:104BE0000CFB08F734BFA2EBC702B2EBC70261EBC4
:104BF00057714FEA816141EA92114FEA826242EABB
:104C000090124FEA806004EBCC04039F4FEAD13747
:104C100006FB07FC4FEA1C4C0CFB0BF7D21B03FBFB
:104C20000CF761EB07010CFB0EF7B0EB074072EBE2
:104C300017420CFB08F734BFA2EB0742B2EB074266
:104C400061EB17414FEA8C5504EB9C244FEA910726
:104C500006FB07FC4FEA1C4C0CFB0BF7B0EBC74004
:104C600072EB573203FB0CF734BFA2EBC742B2EB37
:104C7000C74261EB57310CFB0EF7B0EBC70072EB8C
:104C800057720CFB08F734BFA2EBC702B2EBC702A6
:104C900061EB57714FEA816141EA92114FEA8262FA
:104CA00042EA90124FEA806015EB4C2544F1000473
:104CB0004FEAD13706FB07FC4FEA1C4C0CFB0BF705
:104CC000D21B03FB0CF761EB07010CFB0EF7B0EBFB
:104CD000074072EB17420CFB08F734BFA2EB074208
:104CE000B2EB074261EB17414FEA813141EA924151
:104CF0004FEA823242EA90424FEA80304FEA0C7625
:104D000015EB1C1544F1000448EA03434EEA0B4836
:104D10004FF0000EB2EB080C71EB030724BF6246A4
:104D200039464EEB0E0E4FF0000B00185241494130
:104D30004BEB0B0BB2EB080C71EB03077BF1000B99
:104D400024BF624639464EEB0E0E4FF0000B0018A2
:104D5000524149414BEB0B0BB2EB080C71EB0307D3
:104D60007BF1000B24BF624639464EEB0E0E51EA32
:104D7000020718BF46F0010616EB0E7655F1000249
:104D800054F1000103D5BDE88901BDE80088BDE804
:104D90008901BDE80048B619524141EB0101A3F178
:104DA0000103704780807F7E7D7C7B7A797877767F
:104DB00076757473727171706F6E6E6D6C6C6B6AF8
:104DC0006A69686867666665646463636261616096
:104DD000605F5F5E5E5D5D5C5C5B5B5A5A59595813
:104DE000585757565655555554545353525252517D
:104DF000515050504F4F4F4E4E4D4D4D4C4C4C4BD3
:104E00004B4B4A4A4A494949484848474747474619
:104E10004646454545444444444343434342424255
:104E2000424141419C46002B30D477002BD04FEAC1
:104E300037071CB503B44FF010004FF01001BAF162
:104E4000000F06D0BCF1000FDCBF40F0080040F0BE
:104E500008014FF000000FBCBDE810400BF1010B42
:104E6000BBF1010F08BF5FEA170722BF12F1010271
:104E700011F101014FF0004143F1000300F0004047
:104E800043EA00007047F9D35708D0E746EA0646E0
:104E90004FEA164613F1400F1FDD13F1200FDFBF5D
:104EA00016430A46002120335B42BED0C3F12007DF
:104EB00046EA06464FEA164602FA07F746EA0706AA
:104EC00022FA03F2C3F1200701FA07F742EA0702C8
:104ED00021FA03F14FF00003A7E746EA020646EA8B
:104EE00006464FEA164646EA0106BCBF46EA0646B3
:104EF000360C4FF000034FF000024FF0000194E732
:104F00002DE9804C70B49A46934691E8380007C862
:104F100031EA400C48BF34EA430C03D5FFF7E6FD05
:104F2000FFF780FFF0BCBDE8008C2DE9804C70B429
:104F30009A46934691E8380007C810F0804F08BFA2
:104F400013F0804F03D100F005F8FFF76BFFF0BCC2
:104F5000BDE8008C20F07F4723F07F4C80EA0300FF
:104F600000F0004007EB0C03A3F57C53A3F1FE0314
:104F700092F0000F00F0B38095F0000F00F0778002
:104F80002DE901494FEA114021EA00484FEA144651
:104F900024EA064700FB06FC08FB06F607FB08F8B8
:104FA00018EB06484CEB164C00FB07F718EB0748CC
:104FB0004CEB17404FEA124B22EA0B4E4FEA1546D4
:104FC00025EA06470BFB06FC0EFB06F607FB0EFE6A
:104FD0001EEB064E4CEB164C0BFB07F71EEB074E79
:104FE0004CEB174B18EB0B0840F1000018EB0E0BC5
:104FF00058EB000840F100008F1A4FF000014FF00D
:1050000000063CBFC943661B14BFB5EB040C00216E
:105010003CBFC943F61B4FEA174427EA04454FEA51
:105020001C472CEA074C04FB076205FB07F70CFB47
:1050300005F616EB074642EB174204FB0CFC16EB99
:105040000C4642EB1C421BEB060658EB02024141A8
:105050004EEA8E0E46EA9E0601D5BDE80189B619D4
:10506000524141EB0101A3F10103BDE801894FEA7F
:10507000144524EA05464FEA114721EA074C05FB8F
:1050800007F406FB07F70CFB06F111EB074144EBB5
:10509000174405FB0CFC11EB0C4144EB1C444FEA9C
:1050A000124722EA074C05FB07F206FB07F70CFB49
:1050B00006F616EB074642EB174205FB0CFC16EB17
:1050C0000C4642EB1C456A1854F1000148BF70477A
:1050D000B619524141EB0101A3F10103704795F06C
:1050E000000F37D04FEA114221EA02464FEA144737
:1050F00024EA074C02FB07F106FB07F70CFB06F45A
:1051000014EB074441EB174102FB0CFC14EB0C447D
:1051100041EB1C414FEA154725EA074C02FB07F516
:1051200006FB07F70CFB06F616EB074645EB1745A3
:1051300002FB0CFC16EB0C4645EB1C42121951F11C
:10514000000148BF7047B619524141EB0101A3F17C
:10515000010370474FEA144524EA05464FEA114718
:1051600021EA074C05FB07F106FB07F70CFB06F2EB
:1051700012EB074241EB174105FB0CFC12EB0C4212
:1051800051EB1C414FF0000648BF7047921841EBAD
:105190000101A3F10103704780B5FFF7DBF900B10E
:1051A00080BDFFF7AFFBFFF7F7BF80B5FFF7E6F96C
:1051B00000B180BDFFF7A6FBFFF7F7BF03B401986E
:1051C0004100009850EAC12018BF04204A0D18BFC2
:1051D00040F0010040F2FF72B2EB515F08BF40F0B7
:1051E0000200012808BF052002B0704730380A28A5
:1051F00001D201207047002070478A68002A02DC33
:105200000022FCF7C5BC521E8A604A68C0B2531C1B
:105210004B6010707047000010B500290AD0087864
:10522000002807D005487844FCF74AFF002801D041
:10523000002010BD0248784410BD0000FA010000B3
:10524000F201000010B500290AD00878002807D024
:1052500005487844FCF734FF002801D0002010BD39
:105260000248784410BD0000EA010000E20100009D
:10527000F1EE100A4FF6FF71C0F2C03120EA0100D2
:1052800040F04070E1EE100A7047FBF779BFFCF781
:10529000ADB80000000000000000000030313233E3
:1052A000343536373839414243444546403058005A
:1052B000303132333435363738396162636465668C
:1052C00040307800040000080000000000000002E8
:1052D00000010000103A7474003A7474003A747457
:1052E00000303132333435363738396162636465C2
:1052F00066787000303132333435363738394142D0
:10530000434445465850000002400000000000A001
:105310000000000005400000000000C80000000080
:105320000C4000000000409C0000000019400000FC
:105330000020BCBE0000000034400000BFC91B8E2E
:1053400000000004B5400000504BCFD06607E2CF0C
:10535000010000006C4100003E8251AADFEEA7343C
:1053600001000000D9420000DCB5A0E23A301F97EE
:10537000FFFFFFFFB4450000FD25A0C8E9A3C14F12
:10538000FFFFFFFFFF3F0000000000800000000063
:10539000FF3F00000000008000000000000000004F
:1053A00000000000010203040607080900000000D5
:1053B0000102030400061016000610166C656E67E5
:1053C00074685F6572726F7220776173207468729F
:1053D0006F776E20696E202D666E6F2D6578636520
:1053E0007074696F6E73206D6F646520776974687F
:1053F000206D6573736167652022257322000000AC
:10540000505500080000002038000000100200087D
:105410008855000838000020E0080000300200082D
:105420001C00000043000000F8FFFFFF0C0000001C
:105430000E0000000F0000002E0000001001000010
:1054400043000000F8FFFFFF004040404040404064
:105450004040414141414140404040404040404047
:1054600040404040404040404005020202020202EB
:10547000020202020202020202202020202020203A
:10548000202020020202020202029090909090904E
:10549000101010101010101010101010101010100C
:1054A0001010101002020202020288888888888880
:1054B000080808080808080808080808080808086C
:1054C0000808080802020202400000000000000074
:1054D00000000000000000000000000000000000CC
:1054E00000000000000000000000000000000000BC
:1054F00000000000000000000000000000000000AC
:10550000000000000000000000000000000000009B
:10551000000000000000000000000000000000008B
:10552000000000000000000000000000000000007B
:10553000000000000000000000000000000000006B
:1055400000000000000000000000000051EFFFFF1D
:1055500000000000000000000000000000000080CB
:105560000000000000020000000000000000000039
:105570000000000008000000000000000100000022
:08558000100000000024F400FB
:04000005080001AD41
:00000001FF
