:020000040800F2
:10000000A006002079020008FD1000087510000805
:10001000F910000871040008D51100080000000064
:1000200000000000000000000000000005110008B2
:100030007504000800000000011100080911000803
:10004000930200089302000893020008930200083C
:10005000930200089302000893020008930200082C
:10006000930200089302000893020008930200081C
:10007000930200089302000893020008930200080C
:1000800093020008930200089302000893020008FC
:1000900093020008930200089302000893020008EC
:1000A00093020008930200089302000893020008DC
:1000B00093020008930200089302000893020008CC
:1000C00093020008930200089302000893020008BC
:1000D00093020008930200089302000893020008AC
:1000E000930200089302000893020008930200089C
:1000F000930200089302000893020008930200088C
:10010000930200089302000893020008930200087B
:10011000930200089302000893020008930200086B
:10012000930200089302000893020008930200085B
:10013000930200089302000893020008930200084B
:10014000930200089302000893020008930200083B
:10015000930200089302000893020008930200082B
:10016000930200089302000893020008930200081B
:1001700093020008930200089302000800000000A8
:1001800093020008930200089302000893020008FB
:1001900093020008930200089302000893020008EB
:1001A00000000000000000009302000800F002F8C8
:1001B00000F052F814A696E8000CB244B344DA45B5
:1001C00001D100F049F8BAE80F000FA696E8300018
:1001D000A5EB040504EB0607AAEB0704A7F101074A
:1001E0004FEA15154FEA3414A4F10104AC4201D3CF
:1001F00000F032F813F0010F18BFFB1A43F00103AF
:1002000000F001F8DBE7184744100000641000001C
:10021000103A24BF78C878C1FAD8520724BF30C832
:1002200030C144BF04680C60704700007047000094
:100230000023002400250026103A28BF78C1FBD8EF
:10024000520728BF30C148BF0B6070471FB500F090
:10025000E8FF1FBD10B510BD00F0D0F81146FFF744
:10026000F5FF00F0B9FF00F0EEF803B4FFF7F2FF7E
:1002700003BC00F0F5F80000094880470948004732
:10028000FEE7FEE7FEE7FEE7FEE7FEE7FEE7FEE746
:10029000FEE7FEE704480549054A064B70470000A3
:1002A000C1110008AD010008A0000020A006002038
:1002B000A0020020A002002053EA020C00F0698096
:1002C0002DE9F04B4FF00006002B1FBFB3FA83F56A
:1002D00003FA05F424FA05F65E4012BF1643B2FA9B
:1002E00082F502FA05F4C5F120051EBF22FA05FCCD
:1002F00044EA0C04203556EA044C4FEA144418BF73
:10030000641C4FF000084FF00009904271EB030CA1
:1003100039D3002919BFB1FA81F701FA07F6B0FA0B
:1003200080F700FA07F6C7F120071EBF20FA07FC86
:1003300046EA0C062037B6FBF4FCA7EB0507103F96
:1003400007F01F0BCBF120062CFA06F60CFA0BFB7C
:1003500044BFB3460026202FA4BF5E464FF0000BDB
:100360005BEA060C08BF4FF0010B19EB0B0948EBD9
:100370000608ABFB027C06FB02CC0BFB03CCC01BCC
:1003800071EB0C01C1E70B46024641464846BDE809
:10039000F08B13B5084318BF4FF0FF300146AFF3A1
:1003A0000080BDE81C4070474FF0000200B51346C6
:1003B00094469646203922BFA0E80C50A0E80C5085
:1003C000B1F12001BFF4F7AF090728BFA0E80C5036
:1003D00048BF0CC05DF804EB890028BF40F8042B2F
:1003E00008BF704748BF20F8022B11F0804F18BF9C
:1003F00000F8012B7047704770477047754600F052
:100400002BF8AE4605006946534620F007008546A6
:1004100018B020B5FFF73EFFBDE820404FF00006C2
:100420004FF000074FF000084FF0000BAC46ACE86F
:10043000C009ACE8C009ACE8C009ACE8C00921F0CB
:1004400007018D46704710B50446AFF30080204683
:10045000BDE81040FFF709BF0048704710000020BA
:1004600001491820ABBEFEE72600020070470000DD
:10047000FEE700007047000072B600BFFEE7000014
:1004800090F82020013A012A08D8006800F11402EF
:100490000020136819431160704700BF00F1240267
:1004A00001204FF480211368194311607047000048
:1004B00090F82020013A012A30D8B0B546F2006009
:1004C000C4F20000026842F001020260026822F4F5
:1004D0007C520260D1F814E0CC694A6A0368012CAE
:1004E00043EA022202600EF01F024FF0010303FAFA
:1004F00002F2C3696FEA020C23EA0203C36113D05C
:100500002CBBC36803EA0C03C360CB688C8844EA45
:10051000034300EBCE0423640B4611E0416A41F42F
:100520008021416201207047C3681343C3600B6898
:100530008C8844EA034300EBCE04236401F10C03EE
:100540008C681B8843EA044300EBCE046364436871
:100550008D6943EA0204D1F810E0096A002D08BF52
:1005600003EA0C0444604369BEF1000F43EA02044D
:1005700008BF03EA0C040129446102D1C169114397
:10058000C161016821F0010101600020B0BD0000DF
:10059000002804BF01207047B0B5044690F8200041
:1005A00010B9204600F06EF82068016841F00101A2
:1005B000016000F0A1F9054620684168C90705D12E
:1005C00000F09AF9401B0B28F6D310E0016821F0E7
:1005D0000201016000F090F9054600BF2068416803
:1005E00089070DD500F088F9401B0B28F6D3606A07
:1005F000052140F400306062012084F82010B0BD75
:10060000217E0268012922F0800208BF8032026048
:10061000617E0268012922F0400208BF4032026078
:10062000A17E0268012922F0200208BF2032026068
:10063000E17E0268012922F0100218BF1032026028
:10064000217F0268012922F0080208BF08320260F7
:10065000617F0268012922F0040208BF04320260AF
:10066000D4E901C2D4E9033561691A432A4311432D
:10067000ACF101021143C16100200121606284F8E4
:100680002010B0BD80B586B046F200410068C4F2CB
:100690000001002288420592CDE9032202920192D4
:1006A00002D006B080BD00BF43F630000092C4F215
:1006B0000200036943F000730361036903F00073F0
:1006C0000093009B0092036843F0020303600068FC
:1006D00000F00200009000984FF44070019002205A
:1006E000CDE90202032004900920059001F5D030E5
:1006F00001A900F031F806B080BD0000B0B5044695
:1007000090F8200001281DD1022084F820002068E4
:10071000016821F00101016000F0EEF8054600BF1C
:1007200020684068C00713D000F0E6F8401B0B2893
:10073000F6D3606A40F400306062052084F820003F
:100740000120B0BD606A40F4002060620120B0BDAD
:1007500000206062B0BD00002DE9F04F83B000F1D1
:10076000200200F13E4742F20045009207F1FF7778
:10077000C4F202050A224FEAB726A84208BF09229E
:1007800000254FF000084FF00009092E38BF4FEA4E
:10079000B72201920AE000BF09F1010908F102083D
:1007A000B9F1100F05F1040500F0A2800F680122D5
:1007B00002FA09FE17EA0E0AEED0D1F804C00322AD
:1007C0000CF003077E1E02FA08F4012E6FEA040BF8
:1007D00012D88468CE6804EA0B0406FA08F634439B
:1007E0008460446824EA0E06CCF3001404FA09F489
:1007F0002643466004E000BF032F01D103271EE01B
:10080000C6688C6806EA0B0604FA08F42643022F31
:10081000C66014D16FF00302009E02EA590756F831
:1008200007C005F01C040F220B69A2402CEA02024B
:10083000A3401A43F251D1F804C00CF00307026838
:1008400007FA08F302EA0B021A431CF4403F026065
:10085000A2D0002243F644030292C4F202031A68B3
:1008600043F6004442F480421A601A68C4F201045C
:1008700002F480420292029A29F003024FF6084CD9
:100880002244CFF6FF7C52F80C3005F00C070F26FF
:10089000BE40B343019E06FA07F73B4342F80C30D3
:1008A000A2684B6842EA0A0743F60C4CDE0258BFC6
:1008B00022EA0A07A760C4F2010CDCF800209E02BD
:1008C00042EA0A0758BF22EA0A07CCF800706268B9
:1008D0009E0342EA0A0758BF22EA0A0767602268B5
:1008E000DB0342EA0A0758BF22EA0A07276053E7F8
:1008F00003B0BDE8F08F000040F29800C2F20000A3
:100900000068704740F2000040F29801C2F2000017
:10091000C2F2000100780A681044086070470000C5
:1009200080B543F60040C4F20200016841F4007152
:100930000160016841F480610160016841F48071E7
:100940000160032000F074F80F2000F005F800F0BB
:1009500027F8002080BD000070B540F20006C2F20A
:10096000000640F208013278C2F200014FF47A73B7
:100970000968B3FBF2F20446B1FBF2F1084600F05D
:1009800063FB0F2C4FF0010508D838B94FF0FF304A
:1009900021460022002500F01FF87460284670BD33
:1009A00082B0002043F640010190C4F202014A687F
:1009B00042F480424A604A6802F480420192019AFD
:1009C0000090086840F080500860086800F080508F
:1009D0000090009802B0704710B54EF60C5CCEF255
:1009E000000CDCF80030C3F3022E8EF00704042C58
:1009F00028BF0424BEF103034FF0FF3E0EFA04F4B7
:100A000038BF0023A14399400EFA03F39A431143E0
:100A100000F00F0200F160430901043A03F564435A
:100A20006244002848BF02F10C03197010BD000099
:100A30004EF60C51CEF200010A684FF6FF031A4041
:100A400060F30A2242F0806040F0FD700860704759
:100A500070B582B00020019043F64000C4F202005D
:100A60000168402641F0805101600068C4F20E2602
:100A700000F080500190019847F204050120C4F273
:100A800000053060FFF738FF044600BF2868C00348
:100A900006D4FFF731FF001BB0F57A7FF6D90EE0E0
:100AA00001207060FFF728FF044600BF286880031C
:100AB00008D4FFF721FF001BB0F57A7FF6D9032099
:100AC00002B070BD002002B070BD0000002804BF5D
:100AD000012070472DE9F04143F60808C4F20208EE
:100AE0000446D8F8F8030D4600F00F00884207D2FC
:100AF00088F8F853D8F8F80300F00F00A84277D12F
:100B00002068810717D5410705D5D8F8001041F4B2
:100B1000E051C8F80010010705D5D8F8001041F4DD
:100B20006041C8F80010D8F80010A26821F0F00168
:100B30001143C8F80010C00740D1D8F8F80300F0FE
:100B40000F00A84207D988F8F853D8F8F80300F046
:100B50000F00A8424CD12068410707D5D8F80010F3
:100B6000E26821F4E0511143C8F80010000708D5ED
:100B7000D8F80000216920F4604040EAC100C8F8BC
:100B8000000000F055F8D8F8001041F23C22C1F303
:100B90000311C0F60002515C40F2080220FA01F194
:100BA00040F20400C2F200000068C2F200021160CC
:100BB000FFF7D2FE0020BDE8F08100BF6068811E13
:100BC000022907D258F8081C89015CBF0120BDE842
:100BD000F08111E0012807D158F8081C89035CBF97
:100BE0000120BDE8F08107E058F8081C890703D40C
:100BF0000120BDE8F08100BFD8F8001021F003010A
:100C00000843C8F80000FFF777FE064641F2883730
:100C1000D8F80000616800F00C00B0EB810F8CD0B8
:100C2000FFF76AFE801BB842F2D90320BDE8F081CD
:100C300010B543F60404C4F20204606800F00C002E
:100C400008280BD0042819BF42F20040C0F2F4007B
:100C500047F64000C0F27D1010BD00BF206821683B
:100C60002368490247F64001C0F27D1100F03F02BF
:100C7000C3F388105CBF42F20041C0F2F401A1FB53
:100C800000010023FFF718FB21680222C1F3014194
:100C900002EB4101B0FBF1F010BD0000002804BFE1
:100CA000012070472DE9F04182B00446007843F6F8
:100CB0000006C007C4F202060CD0B06800F00C00B9
:100CC000042840F081803068800303D560680028E4
:100CD00000F06881207880071BD5B06810F00C0FF9
:100CE00009D0B06800F00C00082840F087807068D8
:100CF000400200F183803068800703D5E068012856
:100D000040F050813068216920F0F80040EAC100CD
:100D100030602078000713D4207840072AD4A569D2
:100D2000002D00F03A81B06800F00C00082840F077
:100D3000A580012D40F00E81012002B0BDE8F081B8
:100D40006069002800F082800020C4F24720012161
:100D5000C0F8801EFFF7D0FD054600BF706F80070A
:100D6000DAD4FFF7C9FD401B0228F7D9032002B0EF
:100D7000BDE8F081306C5FEAC0080AD40020019021
:100D8000306C40F080503064306C00F08050019046
:100D9000019847F20007C4F200073868C00547D43D
:100DA000386840F480703860FFF7A6FD054600BF44
:100DB0003868C0053CD4FFF79FFD401B0228F7D9D7
:100DC000032002B0BDE8F081B06800F00C000828F4
:100DD00003D1706840023FF576AF61683068B1F5C5
:100DE000803F07D0B1F5A02F40F09A8040F48020DA
:100DF0003060306840F4803030609AE0E06800286D
:100E000040F20000C4F247205CD001210160FFF7EE
:100E100073FD0546306880073FF574AFFFF76CFD42
:100E2000401B0228F6D9032002B0BDE8F08100BFC4
:100E3000A168306F012905D0052955D140F0040083
:100E40003067306F40F00100306756E00020C4F298
:100E500047200021C0F8801EFFF74EFD054600BF69
:100E6000706F80077FF558AFFFF746FD401B0228E3
:100E7000F6D9032002B0BDE8F08100BF0027C4F21C
:100E8000472700203866FFF737FD022D05460DD1B4
:100E90003068800140F18A80FFF72EFD401B022858
:100EA0004FF00300F4D902B0BDE8F0813068800152
:100EB00073D5FFF721FD401B02284FF00300F5D941
:100EC000F1E700BF00210160FFF716FD054600BFF6
:100ED000306880077FF51DAFFFF70EFD401B02282D
:100EE0004FF00300F4D9DEE720F001003067306FE7
:100EF000002920F0040030677AD0FFF7FDFC05469A
:100F000041F28837306F800700F18480FFF7F4FCEE
:100F1000401BB842F6D9032002B0BDE8F08100BF03
:100F200020F4803030603068002920F48020306068
:100F30007AD0FFF7E1FC0546306880033FF5CAAE82
:100F4000FFF7DAFC401B6428F6D9032002B0BDE8A5
:100F5000F08100BF7068E16900F480028A4221D10B
:100F6000216A00F03F028A421CD147F6C071626AD2
:100F70000140B1EB821F15D1A16A4FF6FF73C9037F
:100F8000994300F44032A1F580318A420AD1E16AE6
:100F900000F07060B0EB016F04D1002002B0BDE83A
:100FA000F08100BF012002B0BDE8F08104F11C0512
:100FB0002FCD084340EA8210D9034FF6FF729143C8
:100FC000A1F5803140EA0560084370600120386671
:100FD000FFF792FC044600BF30688001DDD4FFF7C4
:100FE0008BFC001B02284FF00300F5D95BE700BF24
:100FF000FFF782FC054641F2883700BF306F80075B
:1010000008D5FFF779FC401BB8424FF00300F5D933
:1010100049E700BFB8F1000F3FF581AE306C20F01A
:10102000805030647BE600BFFFF766FC054600BFDA
:10103000306880037FF54EAEFFF75EFC401B6428EE
:101040004FF00300F4D92EE7411E0020B0EB116FE2
:101050001CBF012070474EF21002CEF20002516018
:101060004EF62351CEF20001F0230B700721906061
:1010700011607047FEE7000080B540F2700046F254
:101080000041C2F20000C4F200010522002380E802
:101090000E0000F10C014FF4A02C4FF4801E81E8EB
:1010A00008504FF480710183C0F81A30FFF770FACE
:1010B000002808BF80BDBDE88040FFF7DDB9000013
:1010C00082B0002043F630010190C4F202010A68A8
:1010D00042F002020A600A6802F002020192019ADA
:1010E0000090086840F080000860086800F0800008
:1010F0000090009802B07047FEE70000FEE7000095
:101100007047000070470000FFF7FCBB10B592B0BD
:1011100006AC20463021FFF747F9002043F6400196
:101120000590CDE90300CDE901000090C4F2020171
:101130000A68012342F080520A60096801F0805178
:101140000091009947F200010090C4F200010A6882
:1011500063F38F320A600968102201F44041009164
:1011600000990221CDE90C1008200E905A20CDE9FB
:101170000F01042011902046069109930A92FFF76F
:101180008DFD18B172B600BFFEE700BFFFF760FC2F
:1011900010B172B6FEE700BF0F200190022002904E
:1011A00000204FF480510390CDE9041001A80221E2
:1011B000FFF78CFC10B172B6FEE700BF12B010BD95
:1011C0004EF68850CEF20000016841F470010160D3
:1011D00070470000FEE700008AB0FFF7A1FBFFF7B1
:1011E00095FFFFF76DFFFFF747FF40F27004002007
:1011F0000121C2F200040690CDE90400CDE902000D
:10120000CDE90000CDE90711099069462046FFF7B6
:101210004FF92046FFF772FA20460221FFF730F916
:10122000FEE7F1EE100A4FF6FF71C0F2C03120EA7E
:10123000010040F04070E1EE100A7047000000002D
:1012400000000000010203040607080970120008EC
:1012500000000020100000001002000880120008AA
:10126000100000209006000030020008000000007E
:1012700001000000100000000024F4000000000045
:04000005080001AD41
:00000001FF
